{
  "_format": "hh-sol-artifact-1",
  "contractName": "PropertyToken",
  "sourceName": "contracts/PropertyToken.sol",
  "abi": [
    {
      "inputs": [
        {
          "internalType": "string",
          "name": "_name",
          "type": "string"
        },
        {
          "internalType": "string",
          "name": "_symbol",
          "type": "string"
        },
        {
          "internalType": "string",
          "name": "_title",
          "type": "string"
        },
        {
          "internalType": "string",
          "name": "_description",
          "type": "string"
        },
        {
          "internalType": "string",
          "name": "_location",
          "type": "string"
        },
        {
          "internalType": "string",
          "name": "_imageHash",
          "type": "string"
        },
        {
          "internalType": "uint256",
          "name": "_valuation",
          "type": "uint256"
        },
        {
          "internalType": "uint256",
          "name": "_totalSupply",
          "type": "uint256"
        },
        {
          "internalType": "uint256",
          "name": "_pricePerToken",
          "type": "uint256"
        },
        {
          "internalType": "uint256",
          "name": "_yieldRate",
          "type": "uint256"
        }
      ],
      "stateMutability": "nonpayable",
      "type": "constructor"
    },
    {
      "inputs": [
        {
          "internalType": "address",
          "name": "spender",
          "type": "address"
        },
        {
          "internalType": "uint256",
          "name": "allowance",
          "type": "uint256"
        },
        {
          "internalType": "uint256",
          "name": "needed",
          "type": "uint256"
        }
      ],
      "name": "ERC20InsufficientAllowance",
      "type": "error"
    },
    {
      "inputs": [
        {
          "internalType": "address",
          "name": "sender",
          "type": "address"
        },
        {
          "internalType": "uint256",
          "name": "balance",
          "type": "uint256"
        },
        {
          "internalType": "uint256",
          "name": "needed",
          "type": "uint256"
        }
      ],
      "name": "ERC20InsufficientBalance",
      "type": "error"
    },
    {
      "inputs": [
        {
          "internalType": "address",
          "name": "approver",
          "type": "address"
        }
      ],
      "name": "ERC20InvalidApprover",
      "type": "error"
    },
    {
      "inputs": [
        {
          "internalType": "address",
          "name": "receiver",
          "type": "address"
        }
      ],
      "name": "ERC20InvalidReceiver",
      "type": "error"
    },
    {
      "inputs": [
        {
          "internalType": "address",
          "name": "sender",
          "type": "address"
        }
      ],
      "name": "ERC20InvalidSender",
      "type": "error"
    },
    {
      "inputs": [
        {
          "internalType": "address",
          "name": "spender",
          "type": "address"
        }
      ],
      "name": "ERC20InvalidSpender",
      "type": "error"
    },
    {
      "inputs": [
        {
          "internalType": "address",
          "name": "owner",
          "type": "address"
        }
      ],
      "name": "OwnableInvalidOwner",
      "type": "error"
    },
    {
      "inputs": [
        {
          "internalType": "address",
          "name": "account",
          "type": "address"
        }
      ],
      "name": "OwnableUnauthorizedAccount",
      "type": "error"
    },
    {
      "inputs": [],
      "name": "ReentrancyGuardReentrantCall",
      "type": "error"
    },
    {
      "anonymous": false,
      "inputs": [
        {
          "indexed": true,
          "internalType": "address",
          "name": "owner",
          "type": "address"
        },
        {
          "indexed": true,
          "internalType": "address",
          "name": "spender",
          "type": "address"
        },
        {
          "indexed": false,
          "internalType": "uint256",
          "name": "value",
          "type": "uint256"
        }
      ],
      "name": "Approval",
      "type": "event"
    },
    {
      "anonymous": false,
      "inputs": [
        {
          "indexed": true,
          "internalType": "address",
          "name": "user",
          "type": "address"
        },
        {
          "indexed": false,
          "internalType": "bool",
          "name": "isPlatformCustody",
          "type": "bool"
        }
      ],
      "name": "CustodyChanged",
      "type": "event"
    },
    {
      "anonymous": false,
      "inputs": [
        {
          "indexed": true,
          "internalType": "address",
          "name": "previousOwner",
          "type": "address"
        },
        {
          "indexed": true,
          "internalType": "address",
          "name": "newOwner",
          "type": "address"
        }
      ],
      "name": "OwnershipTransferred",
      "type": "event"
    },
    {
      "anonymous": false,
      "inputs": [
        {
          "indexed": false,
          "internalType": "string",
          "name": "title",
          "type": "string"
        },
        {
          "indexed": false,
          "internalType": "uint256",
          "name": "totalSupply",
          "type": "uint256"
        },
        {
          "indexed": false,
          "internalType": "uint256",
          "name": "pricePerToken",
          "type": "uint256"
        }
      ],
      "name": "PropertyCreated",
      "type": "event"
    },
    {
      "anonymous": false,
      "inputs": [
        {
          "indexed": false,
          "internalType": "uint256",
          "name": "amount",
          "type": "uint256"
        },
        {
          "indexed": false,
          "internalType": "uint256",
          "name": "timestamp",
          "type": "uint256"
        }
      ],
      "name": "RentDeposited",
      "type": "event"
    },
    {
      "anonymous": false,
      "inputs": [
        {
          "indexed": true,
          "internalType": "address",
          "name": "buyer",
          "type": "address"
        },
        {
          "indexed": false,
          "internalType": "uint256",
          "name": "amount",
          "type": "uint256"
        },
        {
          "indexed": false,
          "internalType": "uint256",
          "name": "cost",
          "type": "uint256"
        }
      ],
      "name": "TokensPurchased",
      "type": "event"
    },
    {
      "anonymous": false,
      "inputs": [
        {
          "indexed": true,
          "internalType": "address",
          "name": "from",
          "type": "address"
        },
        {
          "indexed": true,
          "internalType": "address",
          "name": "to",
          "type": "address"
        },
        {
          "indexed": false,
          "internalType": "uint256",
          "name": "value",
          "type": "uint256"
        }
      ],
      "name": "Transfer",
      "type": "event"
    },
    {
      "anonymous": false,
      "inputs": [
        {
          "indexed": true,
          "internalType": "address",
          "name": "user",
          "type": "address"
        },
        {
          "indexed": false,
          "internalType": "bool",
          "name": "status",
          "type": "bool"
        }
      ],
      "name": "UserVerified",
      "type": "event"
    },
    {
      "anonymous": false,
      "inputs": [
        {
          "indexed": true,
          "internalType": "address",
          "name": "user",
          "type": "address"
        },
        {
          "indexed": false,
          "internalType": "uint256",
          "name": "amount",
          "type": "uint256"
        }
      ],
      "name": "YieldClaimed",
      "type": "event"
    },
    {
      "inputs": [],
      "name": "accumulatedYieldPerToken",
      "outputs": [
        {
          "internalType": "uint256",
          "name": "",
          "type": "uint256"
        }
      ],
      "stateMutability": "view",
      "type": "function"
    },
    {
      "inputs": [
        {
          "internalType": "address",
          "name": "owner",
          "type": "address"
        },
        {
          "internalType": "address",
          "name": "spender",
          "type": "address"
        }
      ],
      "name": "allowance",
      "outputs": [
        {
          "internalType": "uint256",
          "name": "",
          "type": "uint256"
        }
      ],
      "stateMutability": "view",
      "type": "function"
    },
    {
      "inputs": [
        {
          "internalType": "address",
          "name": "spender",
          "type": "address"
        },
        {
          "internalType": "uint256",
          "name": "value",
          "type": "uint256"
        }
      ],
      "name": "approve",
      "outputs": [
        {
          "internalType": "bool",
          "name": "",
          "type": "bool"
        }
      ],
      "stateMutability": "nonpayable",
      "type": "function"
    },
    {
      "inputs": [
        {
          "internalType": "address",
          "name": "account",
          "type": "address"
        }
      ],
      "name": "balanceOf",
      "outputs": [
        {
          "internalType": "uint256",
          "name": "",
          "type": "uint256"
        }
      ],
      "stateMutability": "view",
      "type": "function"
    },
    {
      "inputs": [
        {
          "internalType": "address[]",
          "name": "_users",
          "type": "address[]"
        },
        {
          "internalType": "bool",
          "name": "_status",
          "type": "bool"
        }
      ],
      "name": "batchSetVerified",
      "outputs": [],
      "stateMutability": "nonpayable",
      "type": "function"
    },
    {
      "inputs": [
        {
          "internalType": "uint256",
          "name": "_amount",
          "type": "uint256"
        }
      ],
      "name": "buyTokens",
      "outputs": [],
      "stateMutability": "payable",
      "type": "function"
    },
    {
      "inputs": [],
      "name": "claimYield",
      "outputs": [],
      "stateMutability": "nonpayable",
      "type": "function"
    },
    {
      "inputs": [],
      "name": "decimals",
      "outputs": [
        {
          "internalType": "uint8",
          "name": "",
          "type": "uint8"
        }
      ],
      "stateMutability": "view",
      "type": "function"
    },
    {
      "inputs": [],
      "name": "depositRent",
      "outputs": [],
      "stateMutability": "payable",
      "type": "function"
    },
    {
      "inputs": [],
      "name": "getAvailableTokens",
      "outputs": [
        {
          "internalType": "uint256",
          "name": "",
          "type": "uint256"
        }
      ],
      "stateMutability": "view",
      "type": "function"
    },
    {
      "inputs": [
        {
          "internalType": "address",
          "name": "_user",
          "type": "address"
        }
      ],
      "name": "getCustodyStatus",
      "outputs": [
        {
          "internalType": "string",
          "name": "",
          "type": "string"
        }
      ],
      "stateMutability": "view",
      "type": "function"
    },
    {
      "inputs": [
        {
          "internalType": "address",
          "name": "_user",
          "type": "address"
        }
      ],
      "name": "getOwnershipPercentage",
      "outputs": [
        {
          "internalType": "uint256",
          "name": "",
          "type": "uint256"
        }
      ],
      "stateMutability": "view",
      "type": "function"
    },
    {
      "inputs": [],
      "name": "getPropertyInfo",
      "outputs": [
        {
          "components": [
            {
              "internalType": "string",
              "name": "title",
              "type": "string"
            },
            {
              "internalType": "string",
              "name": "description",
              "type": "string"
            },
            {
              "internalType": "string",
              "name": "location",
              "type": "string"
            },
            {
              "internalType": "string",
              "name": "imageHash",
              "type": "string"
            },
            {
              "internalType": "uint256",
              "name": "valuation",
              "type": "uint256"
            },
            {
              "internalType": "uint256",
              "name": "totalSupply",
              "type": "uint256"
            },
            {
              "internalType": "uint256",
              "name": "pricePerToken",
              "type": "uint256"
            },
            {
              "internalType": "uint256",
              "name": "yieldRate",
              "type": "uint256"
            },
            {
              "internalType": "bool",
              "name": "isActive",
              "type": "bool"
            }
          ],
          "internalType": "struct PropertyToken.PropertyInfo",
          "name": "",
          "type": "tuple"
        }
      ],
      "stateMutability": "view",
      "type": "function"
    },
    {
      "inputs": [
        {
          "internalType": "address",
          "name": "_user",
          "type": "address"
        }
      ],
      "name": "getTotalYieldClaimed",
      "outputs": [
        {
          "internalType": "uint256",
          "name": "",
          "type": "uint256"
        }
      ],
      "stateMutability": "view",
      "type": "function"
    },
    {
      "inputs": [
        {
          "internalType": "address",
          "name": "_user",
          "type": "address"
        }
      ],
      "name": "getYieldOwed",
      "outputs": [
        {
          "internalType": "uint256",
          "name": "",
          "type": "uint256"
        }
      ],
      "stateMutability": "view",
      "type": "function"
    },
    {
      "inputs": [
        {
          "internalType": "address",
          "name": "",
          "type": "address"
        }
      ],
      "name": "isPlatformCustody",
      "outputs": [
        {
          "internalType": "bool",
          "name": "",
          "type": "bool"
        }
      ],
      "stateMutability": "view",
      "type": "function"
    },
    {
      "inputs": [
        {
          "internalType": "address",
          "name": "_user",
          "type": "address"
        }
      ],
      "name": "isUserVerified",
      "outputs": [
        {
          "internalType": "bool",
          "name": "",
          "type": "bool"
        }
      ],
      "stateMutability": "view",
      "type": "function"
    },
    {
      "inputs": [
        {
          "internalType": "address",
          "name": "",
          "type": "address"
        }
      ],
      "name": "isVerified",
      "outputs": [
        {
          "internalType": "bool",
          "name": "",
          "type": "bool"
        }
      ],
      "stateMutability": "view",
      "type": "function"
    },
    {
      "inputs": [
        {
          "internalType": "address",
          "name": "",
          "type": "address"
        }
      ],
      "name": "lastYieldPerToken",
      "outputs": [
        {
          "internalType": "uint256",
          "name": "",
          "type": "uint256"
        }
      ],
      "stateMutability": "view",
      "type": "function"
    },
    {
      "inputs": [],
      "name": "name",
      "outputs": [
        {
          "internalType": "string",
          "name": "",
          "type": "string"
        }
      ],
      "stateMutability": "view",
      "type": "function"
    },
    {
      "inputs": [],
      "name": "owner",
      "outputs": [
        {
          "internalType": "address",
          "name": "",
          "type": "address"
        }
      ],
      "stateMutability": "view",
      "type": "function"
    },
    {
      "inputs": [],
      "name": "platformCustodyBalance",
      "outputs": [
        {
          "internalType": "uint256",
          "name": "",
          "type": "uint256"
        }
      ],
      "stateMutability": "view",
      "type": "function"
    },
    {
      "inputs": [],
      "name": "property",
      "outputs": [
        {
          "internalType": "string",
          "name": "title",
          "type": "string"
        },
        {
          "internalType": "string",
          "name": "description",
          "type": "string"
        },
        {
          "internalType": "string",
          "name": "location",
          "type": "string"
        },
        {
          "internalType": "string",
          "name": "imageHash",
          "type": "string"
        },
        {
          "internalType": "uint256",
          "name": "valuation",
          "type": "uint256"
        },
        {
          "internalType": "uint256",
          "name": "totalSupply",
          "type": "uint256"
        },
        {
          "internalType": "uint256",
          "name": "pricePerToken",
          "type": "uint256"
        },
        {
          "internalType": "uint256",
          "name": "yieldRate",
          "type": "uint256"
        },
        {
          "internalType": "bool",
          "name": "isActive",
          "type": "bool"
        }
      ],
      "stateMutability": "view",
      "type": "function"
    },
    {
      "inputs": [],
      "name": "renounceOwnership",
      "outputs": [],
      "stateMutability": "nonpayable",
      "type": "function"
    },
    {
      "inputs": [
        {
          "internalType": "bool",
          "name": "_isActive",
          "type": "bool"
        }
      ],
      "name": "setPropertyActive",
      "outputs": [],
      "stateMutability": "nonpayable",
      "type": "function"
    },
    {
      "inputs": [
        {
          "internalType": "address",
          "name": "_user",
          "type": "address"
        },
        {
          "internalType": "bool",
          "name": "_status",
          "type": "bool"
        }
      ],
      "name": "setVerified",
      "outputs": [],
      "stateMutability": "nonpayable",
      "type": "function"
    },
    {
      "inputs": [
        {
          "internalType": "uint256",
          "name": "_amount",
          "type": "uint256"
        }
      ],
      "name": "stakeToPlatform",
      "outputs": [],
      "stateMutability": "nonpayable",
      "type": "function"
    },
    {
      "inputs": [],
      "name": "symbol",
      "outputs": [
        {
          "internalType": "string",
          "name": "",
          "type": "string"
        }
      ],
      "stateMutability": "view",
      "type": "function"
    },
    {
      "inputs": [],
      "name": "totalSupply",
      "outputs": [
        {
          "internalType": "uint256",
          "name": "",
          "type": "uint256"
        }
      ],
      "stateMutability": "view",
      "type": "function"
    },
    {
      "inputs": [
        {
          "internalType": "address",
          "name": "to",
          "type": "address"
        },
        {
          "internalType": "uint256",
          "name": "value",
          "type": "uint256"
        }
      ],
      "name": "transfer",
      "outputs": [
        {
          "internalType": "bool",
          "name": "",
          "type": "bool"
        }
      ],
      "stateMutability": "nonpayable",
      "type": "function"
    },
    {
      "inputs": [
        {
          "internalType": "address",
          "name": "from",
          "type": "address"
        },
        {
          "internalType": "address",
          "name": "to",
          "type": "address"
        },
        {
          "internalType": "uint256",
          "name": "value",
          "type": "uint256"
        }
      ],
      "name": "transferFrom",
      "outputs": [
        {
          "internalType": "bool",
          "name": "",
          "type": "bool"
        }
      ],
      "stateMutability": "nonpayable",
      "type": "function"
    },
    {
      "inputs": [
        {
          "internalType": "address",
          "name": "newOwner",
          "type": "address"
        }
      ],
      "name": "transferOwnership",
      "outputs": [],
      "stateMutability": "nonpayable",
      "type": "function"
    },
    {
      "inputs": [
        {
          "internalType": "uint256",
          "name": "_amount",
          "type": "uint256"
        }
      ],
      "name": "withdrawFromPlatform",
      "outputs": [],
      "stateMutability": "nonpayable",
      "type": "function"
    },
    {
      "inputs": [
        {
          "internalType": "address",
          "name": "_to",
          "type": "address"
        }
      ],
      "name": "withdrawUnsoldTokens",
      "outputs": [],
      "stateMutability": "nonpayable",
      "type": "function"
    },
    {
      "inputs": [
        {
          "internalType": "address",
          "name": "",
          "type": "address"
        }
      ],
      "name": "yieldClaimed",
      "outputs": [
        {
          "internalType": "uint256",
          "name": "",
          "type": "uint256"
        }
      ],
      "stateMutability": "view",
      "type": "function"
    },
    {
      "inputs": [],
      "name": "yieldInfo",
      "outputs": [
        {
          "internalType": "uint256",
          "name": "totalRentDeposited",
          "type": "uint256"
        },
        {
          "internalType": "uint256",
          "name": "totalRentClaimed",
          "type": "uint256"
        },
        {
          "internalType": "uint256",
          "name": "lastDistributionTime",
          "type": "uint256"
        }
      ],
      "stateMutability": "view",
      "type": "function"
    }
  ],
  "bytecode": "0x60806040523480156200001157600080fd5b5060405162002a2b38038062002a2b833981016040819052620000349162000519565b338a8a6003620000458382620006d8565b506004620000548282620006d8565b5050506001600160a01b0381166200008757604051631e4fbdf760e01b8152600060048201526024015b60405180910390fd5b6200009281620001ed565b506001600681905560408051610120810182528a8152602081018a9052908101889052606081018790526080810186905260a0810185905260c0810184905260e08101839052610100810191909152600780620000f08b82620006d8565b5060208201516001820190620001079082620006d8565b50604082015160028201906200011e9082620006d8565b5060608201516003820190620001359082620006d8565b506080820151600482015560a0820151600582015560c0820151600682015560e08201516007820155610100909101516008909101805460ff19169115159190911790556200018530846200023f565b3360009081526013602052604090819020805460ff19166001179055517f567466cd7ece77aaf3d99ad4421c64c1003f922bd73eed5ab191f7c329e22d2e90620001d5908a9086908690620007a4565b60405180910390a15050505050505050505062000810565b600580546001600160a01b038381166001600160a01b0319831681179093556040519116919082907f8be0079c531659141344cd1fd0a4f28419497f9722a3daafe3b4186f6b6457e090600090a35050565b6001600160a01b0382166200026b5760405163ec442f0560e01b8152600060048201526024016200007e565b62000279600083836200027d565b5050565b6001600160a01b038316158015906200029f57506001600160a01b0383163014155b15620002c2576016546001600160a01b0384166000908152601560205260409020555b6001600160a01b03821615801590620002e457506001600160a01b0382163014155b1562000307576016546001600160a01b0383166000908152601560205260409020555b6200031483838362000319565b505050565b6001600160a01b038316620003485780600260008282546200033c9190620007e8565b90915550620003bc9050565b6001600160a01b038316600090815260208190526040902054818110156200039d5760405163391434e360e21b81526001600160a01b038516600482015260248101829052604481018390526064016200007e565b6001600160a01b03841660009081526020819052604090209082900390555b6001600160a01b038216620003da57600280548290039055620003f9565b6001600160a01b03821660009081526020819052604090208054820190555b816001600160a01b0316836001600160a01b03167fddf252ad1be2c89b69c2b068fc378daa952ba7f163c4a11628f55a4df523b3ef836040516200043f91815260200190565b60405180910390a3505050565b634e487b7160e01b600052604160045260246000fd5b60005b838110156200047f57818101518382015260200162000465565b50506000910152565b600082601f8301126200049a57600080fd5b81516001600160401b0380821115620004b757620004b76200044c565b604051601f8301601f19908116603f01168101908282118183101715620004e257620004e26200044c565b81604052838152866020858801011115620004fc57600080fd5b6200050f84602083016020890162000462565b9695505050505050565b6000806000806000806000806000806101408b8d0312156200053a57600080fd5b8a516001600160401b03808211156200055257600080fd5b620005608e838f0162000488565b9b5060208d01519150808211156200057757600080fd5b620005858e838f0162000488565b9a5060408d01519150808211156200059c57600080fd5b620005aa8e838f0162000488565b995060608d0151915080821115620005c157600080fd5b620005cf8e838f0162000488565b985060808d0151915080821115620005e657600080fd5b620005f48e838f0162000488565b975060a08d01519150808211156200060b57600080fd5b506200061a8d828e0162000488565b95505060c08b0151935060e08b015192506101008b015191506101208b015190509295989b9194979a5092959850565b600181811c908216806200065f57607f821691505b6020821081036200068057634e487b7160e01b600052602260045260246000fd5b50919050565b601f8211156200031457600081815260208120601f850160051c81016020861015620006af5750805b601f850160051c820191505b81811015620006d057828155600101620006bb565b505050505050565b81516001600160401b03811115620006f457620006f46200044c565b6200070c816200070584546200064a565b8462000686565b602080601f8311600181146200074457600084156200072b5750858301515b600019600386901b1c1916600185901b178555620006d0565b600085815260208120601f198616915b82811015620007755788860151825594840194600190910190840162000754565b5085821015620007945787850151600019600388901b60f8161c191681555b5050505050600190811b01905550565b6060815260008451806060840152620007c581608085016020890162000462565b60208301949094525060408101919091526080601f909201601f19160101919050565b808201808211156200080a57634e487b7160e01b600052601160045260246000fd5b92915050565b61220b80620008206000396000f3fe60806040526004361061020e5760003560e01c806381b8d45211610118578063ace417e0116100a0578063dd62ed3e1161006f578063dd62ed3e14610653578063e35568cb14610699578063e56b65d9146106ae578063eec361f5146106db578063f2fde38b146106e357600080fd5b8063ace417e0146105a4578063b9209e33146105dd578063d168e2031461060d578063dca90a371461062357600080fd5b80639cf5c613116100e75780639cf5c613146104ea578063a28fd5f81461050a578063a2931fe81461052a578063a9059cbb1461054a578063aa6bccea1461056a57600080fd5b806381b8d4521461046d5780638da5cb5b1461048d5780638e7c80ef146104b557806395d89b41146104d557600080fd5b8063313ce5671161019b5780634e94b9871161016a5780634e94b987146103c05780635de5f3be146103f657806370a0823114610418578063715018a61461043857806372f57f1f1461044d57600080fd5b8063313ce5671461034f5780633610724e1461036b578063406cf2291461037e57806345bba6971461039357600080fd5b8063176fd3f0116101e2578063176fd3f0146102b057806318160ddd146102da5780631ad3b44f146102ef5780631b2a38421461030f57806323b872dd1461032f57600080fd5b80621e5c8a14610213578063065ed8471461023c57806306fdde031461025e578063095ea7b314610280575b600080fd5b34801561021f57600080fd5b5061022960185481565b6040519081526020015b60405180910390f35b34801561024857600080fd5b5061025c610257366004611d61565b610703565b005b34801561026a57600080fd5b5061027361088c565b6040516102339190611dc0565b34801561028c57600080fd5b506102a061029b366004611def565b61091e565b6040519015158152602001610233565b3480156102bc57600080fd5b506102c5610938565b60405161023399989796959493929190611e19565b3480156102e657600080fd5b50600254610229565b3480156102fb57600080fd5b5061025c61030a366004611ea9565b610b96565b34801561031b57600080fd5b5061022961032a366004611f2d565b610c80565b34801561033b57600080fd5b506102a061034a366004611f48565b610cf0565b34801561035b57600080fd5b5060405160128152602001610233565b61025c610379366004611d61565b610d14565b34801561038a57600080fd5b5061025c610f8a565b34801561039f57600080fd5b506102296103ae366004611f2d565b60146020526000908152604090205481565b3480156103cc57600080fd5b506102296103db366004611f2d565b6001600160a01b031660009081526014602052604090205490565b34801561040257600080fd5b5061040b61112c565b6040516102339190611f84565b34801561042457600080fd5b50610229610433366004611f2d565b611410565b34801561044457600080fd5b5061025c61142b565b34801561045957600080fd5b5061025c610468366004611f2d565b61143d565b34801561047957600080fd5b50610273610488366004611f2d565b6114a4565b34801561049957600080fd5b506005546040516001600160a01b039091168152602001610233565b3480156104c157600080fd5b5061025c6104d0366004611d61565b611560565b3480156104e157600080fd5b506102736116bf565b3480156104f657600080fd5b5061025c610505366004612048565b6116ce565b34801561051657600080fd5b5061025c61052536600461207b565b611735565b34801561053657600080fd5b50610229610545366004611f2d565b611750565b34801561055657600080fd5b506102a0610565366004611def565b611786565b34801561057657600080fd5b5060105460115460125461058992919083565b60408051938452602084019290925290820152606001610233565b3480156105b057600080fd5b506102a06105bf366004611f2d565b6001600160a01b031660009081526013602052604090205460ff1690565b3480156105e957600080fd5b506102a06105f8366004611f2d565b60136020526000908152604090205460ff1681565b34801561061957600080fd5b5061022960165481565b34801561062f57600080fd5b506102a061063e366004611f2d565b60176020526000908152604090205460ff1681565b34801561065f57600080fd5b5061022961066e366004612096565b6001600160a01b03918216600090815260016020908152604080832093909416825291909152205490565b3480156106a557600080fd5b50610229611794565b3480156106ba57600080fd5b506102296106c9366004611f2d565b60156020526000908152604090205481565b61025c6117b1565b3480156106ef57600080fd5b5061025c6106fe366004611f2d565b61190c565b3360009081526013602052604090205460ff1661073b5760405162461bcd60e51b8152600401610732906120c0565b60405180910390fd5b610743611947565b3360009081526017602052604090205460ff166107a25760405162461bcd60e51b815260206004820152601760248201527f4e6f7420696e20706c6174666f726d20637573746f64790000000000000000006044820152606401610732565b8060185410156107f45760405162461bcd60e51b815260206004820152601d60248201527f496e73756666696369656e7420706c6174666f726d2062616c616e63650000006044820152606401610732565b6107fd33611971565b806018600082825461080f919061210d565b909155506108209050303383611990565b61082933611410565b60000361084857336000908152601760205260409020805460ff191690555b6040516000815233907f0c795e67b9f897051c7ee202008e25ec19189270fa1967de09d1ea2e0bdf82da906020015b60405180910390a26108896001600655565b50565b60606003805461089b90612120565b80601f01602080910402602001604051908101604052809291908181526020018280546108c790612120565b80156109145780601f106108e957610100808354040283529160200191610914565b820191906000526020600020905b8154815290600101906020018083116108f757829003601f168201915b5050505050905090565b60003361092c8185856119f4565b60019150505b92915050565b60078054819061094790612120565b80601f016020809104026020016040519081016040528092919081815260200182805461097390612120565b80156109c05780601f10610995576101008083540402835291602001916109c0565b820191906000526020600020905b8154815290600101906020018083116109a357829003601f168201915b5050505050908060010180546109d590612120565b80601f0160208091040260200160405190810160405280929190818152602001828054610a0190612120565b8015610a4e5780601f10610a2357610100808354040283529160200191610a4e565b820191906000526020600020905b815481529060010190602001808311610a3157829003601f168201915b505050505090806002018054610a6390612120565b80601f0160208091040260200160405190810160405280929190818152602001828054610a8f90612120565b8015610adc5780601f10610ab157610100808354040283529160200191610adc565b820191906000526020600020905b815481529060010190602001808311610abf57829003601f168201915b505050505090806003018054610af190612120565b80601f0160208091040260200160405190810160405280929190818152602001828054610b1d90612120565b8015610b6a5780601f10610b3f57610100808354040283529160200191610b6a565b820191906000526020600020905b815481529060010190602001808311610b4d57829003601f168201915b505050600484015460058501546006860154600787015460089097015495969295919450925060ff1689565b610b9e611a01565b60005b82811015610c7a578160136000868685818110610bc057610bc061215a565b9050602002016020810190610bd59190611f2d565b6001600160a01b031681526020810191909152604001600020805460ff1916911515919091179055838382818110610c0f57610c0f61215a565b9050602002016020810190610c249190611f2d565b6001600160a01b03167f34736af44d2b91cd43fa896d4cfe0861ec1e6b4538583d385fc671639e9153b283604051610c60911515815260200190565b60405180910390a280610c7281612170565b915050610ba1565b50505050565b6000610c8b82611410565b600003610c9a57506000919050565b6001600160a01b038216600090815260156020526040812054601654610cc0919061210d565b9050670de0b6b3a764000081610cd585611410565b610cdf9190612189565b610ce991906121a0565b9392505050565b600033610cfe858285611a2e565b610d09858585611990565b506001949350505050565b3360009081526013602052604090205460ff16610d435760405162461bcd60e51b8152600401610732906120c0565b600f5460ff16610d8e5760405162461bcd60e51b815260206004820152601660248201527550726f7065727479206973206e6f742061637469766560501b6044820152606401610732565b610d96611947565b60008111610de65760405162461bcd60e51b815260206004820152601d60248201527f416d6f756e74206d7573742062652067726561746572207468616e20300000006044820152606401610732565b80610df030611410565b1015610e3e5760405162461bcd60e51b815260206004820152601b60248201527f4e6f7420656e6f75676820746f6b656e7320617661696c61626c6500000000006044820152606401610732565b600d54600090610e4e9083612189565b905080341015610e975760405162461bcd60e51b8152602060048201526014602482015273125b9cdd59999a58da595b9d081c185e5b595b9d60621b6044820152606401610732565b610ea033611971565b610eab303384611990565b80341115610f4457600033610ec0833461210d565b604051600081818185875af1925050503d8060008114610efc576040519150601f19603f3d011682016040523d82523d6000602084013e610f01565b606091505b5050905080610f425760405162461bcd60e51b815260206004820152600d60248201526c1499599d5b990819985a5b1959609a1b6044820152606401610732565b505b604080518381526020810183905233917f8fafebcaf9d154343dad25669bfa277f4fbacd7ac6b0c4fed522580e040a0f33910160405180910390a2506108896001600655565b3360009081526013602052604090205460ff16610fb95760405162461bcd60e51b8152600401610732906120c0565b610fc1611947565b610fca33611971565b6000610fd533610c80565b90506000811161101b5760405162461bcd60e51b81526020600482015260116024820152704e6f207969656c6420746f20636c61696d60781b6044820152606401610732565b336000908152601460205260408120805483929061103a9084906121c2565b9091555050601180548291906000906110549084906121c2565b9091555050604051600090339083908381818185875af1925050503d806000811461109b576040519150601f19603f3d011682016040523d82523d6000602084013e6110a0565b606091505b50509050806110e95760405162461bcd60e51b8152602060048201526015602482015274165a595b19081d1c985b9cd9995c8819985a5b1959605a1b6044820152606401610732565b60405182815233907fc04825ba3f383b602255d2a13065a68e325c65c9e0ed5d031ea2b06f641873af9060200160405180910390a2505061112a6001600655565b565b61117d60405180610120016040528060608152602001606081526020016060815260200160608152602001600081526020016000815260200160008152602001600081526020016000151581525090565b60076040518061012001604052908160008201805461119b90612120565b80601f01602080910402602001604051908101604052809291908181526020018280546111c790612120565b80156112145780601f106111e957610100808354040283529160200191611214565b820191906000526020600020905b8154815290600101906020018083116111f757829003601f168201915b5050505050815260200160018201805461122d90612120565b80601f016020809104026020016040519081016040528092919081815260200182805461125990612120565b80156112a65780601f1061127b576101008083540402835291602001916112a6565b820191906000526020600020905b81548152906001019060200180831161128957829003601f168201915b505050505081526020016002820180546112bf90612120565b80601f01602080910402602001604051908101604052809291908181526020018280546112eb90612120565b80156113385780601f1061130d57610100808354040283529160200191611338565b820191906000526020600020905b81548152906001019060200180831161131b57829003601f168201915b5050505050815260200160038201805461135190612120565b80601f016020809104026020016040519081016040528092919081815260200182805461137d90612120565b80156113ca5780601f1061139f576101008083540402835291602001916113ca565b820191906000526020600020905b8154815290600101906020018083116113ad57829003601f168201915b50505091835250506004820154602082015260058201546040820152600682015460608201526007820154608082015260089091015460ff16151560a090910152919050565b6001600160a01b031660009081526020819052604090205490565b611433611a01565b61112a6000611aa7565b611445611a01565b600061145030611410565b9050600081116114955760405162461bcd60e51b815260206004820152601060248201526f4e6f20756e736f6c6420746f6b656e7360801b6044820152606401610732565b6114a0308383611990565b5050565b60606114af82611410565b1580156114d557506001600160a01b03821660009081526017602052604090205460ff16155b156114fa5750506040805180820190915260048152636e6f6e6560e01b602082015290565b6001600160a01b03821660009081526017602052604090205460ff1661153c576040518060400160405280600481526020016339b2b63360e11b815250610932565b5050604080518082019091526008815267706c6174666f726d60c01b602082015290565b3360009081526013602052604090205460ff1661158f5760405162461bcd60e51b8152600401610732906120c0565b611597611947565b806115a133611410565b10156115e65760405162461bcd60e51b8152602060048201526014602482015273496e73756666696369656e742062616c616e636560601b6044820152606401610732565b3360009081526017602052604090205460ff16156116465760405162461bcd60e51b815260206004820152601b60248201527f416c726561647920696e20706c6174666f726d20637573746f647900000000006044820152606401610732565b61164f33611971565b61165a333083611990565b806018600082825461166c91906121c2565b909155505033600081815260176020908152604091829020805460ff1916600190811790915591519182527f0c795e67b9f897051c7ee202008e25ec19189270fa1967de09d1ea2e0bdf82da9101610877565b60606004805461089b90612120565b6116d6611a01565b6001600160a01b038216600081815260136020908152604091829020805460ff191685151590811790915591519182527f34736af44d2b91cd43fa896d4cfe0861ec1e6b4538583d385fc671639e9153b2910160405180910390a25050565b61173d611a01565b600f805460ff1916911515919091179055565b600c54600090810361176457506000919050565b600c5461177083611410565b61177c90612710612189565b61093291906121a0565b60003361092c818585611990565b60006018546117a230611410565b6117ac919061210d565b905090565b6117b9611a01565b6117c1611947565b6000341161180a5760405162461bcd60e51b8152602060048201526016602482015275135d5cdd0819195c1bdcda5d081cdbdb59481c995b9d60521b6044820152606401610732565b600061181530611410565b600c54611822919061210d565b9050600081116118745760405162461bcd60e51b815260206004820152601860248201527f4e6f20746f6b656e7320696e2063697263756c6174696f6e00000000000000006044820152606401610732565b80611887670de0b6b3a764000034612189565b61189191906121a0565b601660008282546118a291906121c2565b9091555050601080543491906000906118bc9084906121c2565b90915550504260128190556040805134815260208101929092527f501e890b4c2d21bc2ff7628fdd958af0db45f8cdbb897d7dae08674fda5e0bb8910160405180910390a15061112a6001600655565b611914611a01565b6001600160a01b03811661193e57604051631e4fbdf760e01b815260006004820152602401610732565b61088981611aa7565b60026006540361196a57604051633ee5aeb560e01b815260040160405180910390fd5b6002600655565b6016546001600160a01b03909116600090815260156020526040902055565b6001600160a01b0383166119ba57604051634b637e8f60e11b815260006004820152602401610732565b6001600160a01b0382166119e45760405163ec442f0560e01b815260006004820152602401610732565b6119ef838383611af9565b505050565b6119ef8383836001611b62565b6005546001600160a01b0316331461112a5760405163118cdaa760e01b8152336004820152602401610732565b6001600160a01b03838116600090815260016020908152604080832093861683529290522054600019811015610c7a5781811015611a9857604051637dc7a0d960e11b81526001600160a01b03841660048201526024810182905260448101839052606401610732565b610c7a84848484036000611b62565b600580546001600160a01b038381166001600160a01b0319831681179093556040519116919082907f8be0079c531659141344cd1fd0a4f28419497f9722a3daafe3b4186f6b6457e090600090a35050565b6001600160a01b03831615801590611b1a57506001600160a01b0383163014155b15611b2857611b2883611971565b6001600160a01b03821615801590611b4957506001600160a01b0382163014155b15611b5757611b5782611971565b6119ef838383611c37565b6001600160a01b038416611b8c5760405163e602df0560e01b815260006004820152602401610732565b6001600160a01b038316611bb657604051634a1406b160e11b815260006004820152602401610732565b6001600160a01b0380851660009081526001602090815260408083209387168352929052208290558015610c7a57826001600160a01b0316846001600160a01b03167f8c5be1e5ebec7d5bd14f71427d1e84f3dd0314c0f7b2291e5b200ac8c7c3b92584604051611c2991815260200190565b60405180910390a350505050565b6001600160a01b038316611c62578060026000828254611c5791906121c2565b90915550611cd49050565b6001600160a01b03831660009081526020819052604090205481811015611cb55760405163391434e360e21b81526001600160a01b03851660048201526024810182905260448101839052606401610732565b6001600160a01b03841660009081526020819052604090209082900390555b6001600160a01b038216611cf057600280548290039055611d0f565b6001600160a01b03821660009081526020819052604090208054820190555b816001600160a01b0316836001600160a01b03167fddf252ad1be2c89b69c2b068fc378daa952ba7f163c4a11628f55a4df523b3ef83604051611d5491815260200190565b60405180910390a3505050565b600060208284031215611d7357600080fd5b5035919050565b6000815180845260005b81811015611da057602081850181015186830182015201611d84565b506000602082860101526020601f19601f83011685010191505092915050565b602081526000610ce96020830184611d7a565b80356001600160a01b0381168114611dea57600080fd5b919050565b60008060408385031215611e0257600080fd5b611e0b83611dd3565b946020939093013593505050565b6000610120808352611e2d8184018d611d7a565b90508281036020840152611e41818c611d7a565b90508281036040840152611e55818b611d7a565b90508281036060840152611e69818a611d7a565b6080840198909852505060a081019490945260c084019290925260e0830152151561010090910152949350505050565b80358015158114611dea57600080fd5b600080600060408486031215611ebe57600080fd5b833567ffffffffffffffff80821115611ed657600080fd5b818601915086601f830112611eea57600080fd5b813581811115611ef957600080fd5b8760208260051b8501011115611f0e57600080fd5b602092830195509350611f249186019050611e99565b90509250925092565b600060208284031215611f3f57600080fd5b610ce982611dd3565b600080600060608486031215611f5d57600080fd5b611f6684611dd3565b9250611f7460208501611dd3565b9150604084013590509250925092565b6020815260008251610120806020850152611fa3610140850183611d7a565b91506020850151601f1980868503016040870152611fc18483611d7a565b93506040870151915080868503016060870152611fde8483611d7a565b9350606087015191508086850301608087015250611ffc8382611d7a565b925050608085015160a085015260a085015160c085015260c085015160e085015260e085015161010081818701528087015191505061203e8286018215159052565b5090949350505050565b6000806040838503121561205b57600080fd5b61206483611dd3565b915061207260208401611e99565b90509250929050565b60006020828403121561208d57600080fd5b610ce982611e99565b600080604083850312156120a957600080fd5b6120b283611dd3565b915061207260208401611dd3565b60208082526019908201527f4b594320766572696669636174696f6e20726571756972656400000000000000604082015260600190565b634e487b7160e01b600052601160045260246000fd5b81810381811115610932576109326120f7565b600181811c9082168061213457607f821691505b60208210810361215457634e487b7160e01b600052602260045260246000fd5b50919050565b634e487b7160e01b600052603260045260246000fd5b600060018201612182576121826120f7565b5060010190565b8082028115828204841417610932576109326120f7565b6000826121bd57634e487b7160e01b600052601260045260246000fd5b500490565b80820180821115610932576109326120f756fea26469706673582212201eb970eb72ec2507ae7c7e865672f9b28b93e8f4ad4315e7eac9b7102425c43b64736f6c63430008140033",
  "linkReferences": {},
  "deployedLinkReferences": {}
}