{
  "_format": "hh-sol-artifact-1",
  "contractName": "RealEstateIDO",
  "sourceName": "contracts/RealEstateIDO.sol",
  "abi": [
    {
      "anonymous": false,
      "inputs": [
        {
          "indexed": true,
          "internalType": "uint256",
          "name": "propertyId",
          "type": "uint256"
        },
        {
          "indexed": false,
          "internalType": "bool",
          "name": "isSuccessful",
          "type": "bool"
        },
        {
          "indexed": false,
          "internalType": "uint256",
          "name": "totalRaised",
          "type": "uint256"
        }
      ],
      "name": "CampaignFinalized",
      "type": "event"
    },
    {
      "anonymous": false,
      "inputs": [
        {
          "indexed": true,
          "internalType": "uint256",
          "name": "propertyId",
          "type": "uint256"
        },
        {
          "indexed": true,
          "internalType": "address",
          "name": "contributor",
          "type": "address"
        },
        {
          "indexed": false,
          "internalType": "uint256",
          "name": "amount",
          "type": "uint256"
        },
        {
          "indexed": false,
          "internalType": "uint256",
          "name": "timestamp",
          "type": "uint256"
        }
      ],
      "name": "ContributionMade",
      "type": "event"
    },
    {
      "anonymous": false,
      "inputs": [
        {
          "indexed": true,
          "internalType": "uint256",
          "name": "propertyId",
          "type": "uint256"
        },
        {
          "indexed": true,
          "internalType": "address",
          "name": "creator",
          "type": "address"
        },
        {
          "indexed": false,
          "internalType": "uint256",
          "name": "amount",
          "type": "uint256"
        }
      ],
      "name": "FundsWithdrawn",
      "type": "event"
    },
    {
      "anonymous": false,
      "inputs": [
        {
          "indexed": true,
          "internalType": "uint256",
          "name": "propertyId",
          "type": "uint256"
        },
        {
          "indexed": true,
          "internalType": "address",
          "name": "creator",
          "type": "address"
        },
        {
          "indexed": false,
          "internalType": "string",
          "name": "title",
          "type": "string"
        },
        {
          "indexed": false,
          "internalType": "uint256",
          "name": "targetPrice",
          "type": "uint256"
        },
        {
          "indexed": false,
          "internalType": "uint256",
          "name": "deadline",
          "type": "uint256"
        }
      ],
      "name": "PropertyCreated",
      "type": "event"
    },
    {
      "inputs": [
        {
          "internalType": "uint256",
          "name": "_propertyId",
          "type": "uint256"
        }
      ],
      "name": "contribute",
      "outputs": [],
      "stateMutability": "payable",
      "type": "function"
    },
    {
      "inputs": [
        {
          "internalType": "uint256",
          "name": "",
          "type": "uint256"
        },
        {
          "internalType": "address",
          "name": "",
          "type": "address"
        }
      ],
      "name": "contributions",
      "outputs": [
        {
          "internalType": "uint256",
          "name": "",
          "type": "uint256"
        }
      ],
      "stateMutability": "view",
      "type": "function"
    },
    {
      "inputs": [
        {
          "internalType": "string",
          "name": "_title",
          "type": "string"
        },
        {
          "internalType": "string",
          "name": "_description",
          "type": "string"
        },
        {
          "internalType": "string",
          "name": "_image",
          "type": "string"
        },
        {
          "internalType": "string",
          "name": "_propertyType",
          "type": "string"
        },
        {
          "internalType": "uint256",
          "name": "_targetPrice",
          "type": "uint256"
        },
        {
          "internalType": "uint256",
          "name": "_deadline",
          "type": "uint256"
        },
        {
          "internalType": "string",
          "name": "_longitude",
          "type": "string"
        },
        {
          "internalType": "string",
          "name": "_latitude",
          "type": "string"
        }
      ],
      "name": "createProperty",
      "outputs": [
        {
          "internalType": "uint256",
          "name": "",
          "type": "uint256"
        }
      ],
      "stateMutability": "nonpayable",
      "type": "function"
    },
    {
      "inputs": [
        {
          "internalType": "uint256",
          "name": "_propertyId",
          "type": "uint256"
        }
      ],
      "name": "finalizeCampaign",
      "outputs": [],
      "stateMutability": "nonpayable",
      "type": "function"
    },
    {
      "inputs": [],
      "name": "getAllProperties",
      "outputs": [
        {
          "components": [
            {
              "internalType": "uint256",
              "name": "id",
              "type": "uint256"
            },
            {
              "internalType": "string",
              "name": "title",
              "type": "string"
            },
            {
              "internalType": "string",
              "name": "description",
              "type": "string"
            },
            {
              "internalType": "string",
              "name": "image",
              "type": "string"
            },
            {
              "internalType": "string",
              "name": "propertyType",
              "type": "string"
            },
            {
              "internalType": "string",
              "name": "longitude",
              "type": "string"
            },
            {
              "internalType": "string",
              "name": "latitude",
              "type": "string"
            },
            {
              "internalType": "address",
              "name": "creator",
              "type": "address"
            },
            {
              "internalType": "uint256",
              "name": "targetPrice",
              "type": "uint256"
            },
            {
              "internalType": "uint256",
              "name": "currentAmount",
              "type": "uint256"
            },
            {
              "internalType": "uint256",
              "name": "deadline",
              "type": "uint256"
            },
            {
              "internalType": "bool",
              "name": "isActive",
              "type": "bool"
            },
            {
              "internalType": "bool",
              "name": "isSuccessful",
              "type": "bool"
            }
          ],
          "internalType": "struct RealEstateIDO.Property[]",
          "name": "",
          "type": "tuple[]"
        }
      ],
      "stateMutability": "view",
      "type": "function"
    },
    {
      "inputs": [
        {
          "internalType": "uint256",
          "name": "_propertyId",
          "type": "uint256"
        },
        {
          "internalType": "address",
          "name": "_address",
          "type": "address"
        }
      ],
      "name": "getContribution",
      "outputs": [
        {
          "internalType": "uint256",
          "name": "",
          "type": "uint256"
        }
      ],
      "stateMutability": "view",
      "type": "function"
    },
    {
      "inputs": [
        {
          "internalType": "uint256",
          "name": "_propertyId",
          "type": "uint256"
        }
      ],
      "name": "getContributors",
      "outputs": [
        {
          "components": [
            {
              "internalType": "address",
              "name": "contributor",
              "type": "address"
            },
            {
              "internalType": "uint256",
              "name": "amount",
              "type": "uint256"
            },
            {
              "internalType": "uint256",
              "name": "timestamp",
              "type": "uint256"
            }
          ],
          "internalType": "struct RealEstateIDO.Contributor[]",
          "name": "",
          "type": "tuple[]"
        }
      ],
      "stateMutability": "view",
      "type": "function"
    },
    {
      "inputs": [
        {
          "internalType": "uint256",
          "name": "_propertyId",
          "type": "uint256"
        }
      ],
      "name": "getPropertyInfo",
      "outputs": [
        {
          "components": [
            {
              "internalType": "uint256",
              "name": "id",
              "type": "uint256"
            },
            {
              "internalType": "string",
              "name": "title",
              "type": "string"
            },
            {
              "internalType": "string",
              "name": "description",
              "type": "string"
            },
            {
              "internalType": "string",
              "name": "image",
              "type": "string"
            },
            {
              "internalType": "string",
              "name": "propertyType",
              "type": "string"
            },
            {
              "internalType": "string",
              "name": "longitude",
              "type": "string"
            },
            {
              "internalType": "string",
              "name": "latitude",
              "type": "string"
            },
            {
              "internalType": "address",
              "name": "creator",
              "type": "address"
            },
            {
              "internalType": "uint256",
              "name": "targetPrice",
              "type": "uint256"
            },
            {
              "internalType": "uint256",
              "name": "currentAmount",
              "type": "uint256"
            },
            {
              "internalType": "uint256",
              "name": "deadline",
              "type": "uint256"
            },
            {
              "internalType": "bool",
              "name": "isActive",
              "type": "bool"
            },
            {
              "internalType": "bool",
              "name": "isSuccessful",
              "type": "bool"
            }
          ],
          "internalType": "struct RealEstateIDO.Property",
          "name": "",
          "type": "tuple"
        }
      ],
      "stateMutability": "view",
      "type": "function"
    },
    {
      "inputs": [
        {
          "internalType": "uint256",
          "name": "_propertyId",
          "type": "uint256"
        },
        {
          "internalType": "address",
          "name": "_address",
          "type": "address"
        }
      ],
      "name": "isContributor",
      "outputs": [
        {
          "internalType": "bool",
          "name": "",
          "type": "bool"
        }
      ],
      "stateMutability": "view",
      "type": "function"
    },
    {
      "inputs": [
        {
          "internalType": "uint256",
          "name": "",
          "type": "uint256"
        }
      ],
      "name": "properties",
      "outputs": [
        {
          "internalType": "uint256",
          "name": "id",
          "type": "uint256"
        },
        {
          "internalType": "string",
          "name": "title",
          "type": "string"
        },
        {
          "internalType": "string",
          "name": "description",
          "type": "string"
        },
        {
          "internalType": "string",
          "name": "image",
          "type": "string"
        },
        {
          "internalType": "string",
          "name": "propertyType",
          "type": "string"
        },
        {
          "internalType": "string",
          "name": "longitude",
          "type": "string"
        },
        {
          "internalType": "string",
          "name": "latitude",
          "type": "string"
        },
        {
          "internalType": "address",
          "name": "creator",
          "type": "address"
        },
        {
          "internalType": "uint256",
          "name": "targetPrice",
          "type": "uint256"
        },
        {
          "internalType": "uint256",
          "name": "currentAmount",
          "type": "uint256"
        },
        {
          "internalType": "uint256",
          "name": "deadline",
          "type": "uint256"
        },
        {
          "internalType": "bool",
          "name": "isActive",
          "type": "bool"
        },
        {
          "internalType": "bool",
          "name": "isSuccessful",
          "type": "bool"
        }
      ],
      "stateMutability": "view",
      "type": "function"
    },
    {
      "inputs": [
        {
          "internalType": "uint256",
          "name": "",
          "type": "uint256"
        },
        {
          "internalType": "uint256",
          "name": "",
          "type": "uint256"
        }
      ],
      "name": "propertyContributors",
      "outputs": [
        {
          "internalType": "address",
          "name": "contributor",
          "type": "address"
        },
        {
          "internalType": "uint256",
          "name": "amount",
          "type": "uint256"
        },
        {
          "internalType": "uint256",
          "name": "timestamp",
          "type": "uint256"
        }
      ],
      "stateMutability": "view",
      "type": "function"
    },
    {
      "inputs": [],
      "name": "propertyCount",
      "outputs": [
        {
          "internalType": "uint256",
          "name": "",
          "type": "uint256"
        }
      ],
      "stateMutability": "view",
      "type": "function"
    },
    {
      "inputs": [
        {
          "internalType": "uint256",
          "name": "_propertyId",
          "type": "uint256"
        }
      ],
      "name": "withdraw",
      "outputs": [],
      "stateMutability": "nonpayable",
      "type": "function"
    }
  ],
  "bytecode": "0x608060405234801561001057600080fd5b506121a9806100206000396000f3fe6080604052600436106100c25760003560e01c80636b5ca27d1161007f578063c1cbbca711610059578063c1cbbca714610265578063c361a33514610278578063e081dbf91461028e578063f7b10808146102ae57600080fd5b80636b5ca27d146101f5578063937bd54a146102155780639eda7d231461023557600080fd5b8063059f1952146100c75780632e1a7d4d146101115780633c1ab00f146101335780633d51402c146101605780633d891f591461018257806340f0a055146101c8575b600080fd5b3480156100d357600080fd5b506100e76100e2366004611a45565b6102e7565b604080516001600160a01b0390941684526020840192909252908201526060015b60405180910390f35b34801561011d57600080fd5b5061013161012c366004611a67565b610333565b005b34801561013f57600080fd5b5061015361014e366004611a67565b6105aa565b6040516101089190611a80565b34801561016c57600080fd5b50610175610666565b6040516101089190611c2b565b34801561018e57600080fd5b506101ba61019d366004611c8d565b600360209081526000928352604080842090915290825290205481565b604051908152602001610108565b3480156101d457600080fd5b506101e86101e3366004611a67565b610ae5565b6040516101089190611cc9565b34801561020157600080fd5b50610131610210366004611a67565b610f02565b34801561022157600080fd5b506101ba610230366004611d86565b611053565b34801561024157600080fd5b50610255610250366004611c8d565b61132e565b6040519015158152602001610108565b610131610273366004611a67565b61138b565b34801561028457600080fd5b506101ba60005481565b34801561029a57600080fd5b506101ba6102a9366004611c8d565b6115d6565b3480156102ba57600080fd5b506102ce6102c9366004611a67565b611631565b6040516101089d9c9b9a99989796959493929190611e90565b6002602052816000526040600020818154811061030357600080fd5b60009182526020909120600390910201805460018201546002909201546001600160a01b03909116935090915083565b8060008111801561034657506000548111155b61036b5760405162461bcd60e51b815260040161036290611f64565b60405180910390fd5b60008281526001602052604090206007015482906001600160a01b031633146103d65760405162461bcd60e51b815260206004820152601a60248201527f4f6e6c792063726561746f722063616e2063616c6c20746869730000000000006044820152606401610362565b6000838152600160205260409020600b81015460ff1661042c5760405162461bcd60e51b815260206004820152601160248201527020b63932b0b23c903bb4ba34323930bbb760791b6044820152606401610362565b600b810154610100900460ff1680610448575080600a01544210155b61048c5760405162461bcd60e51b815260206004820152601560248201527443616d706169676e207374696c6c2061637469766560581b6044820152606401610362565b6009810154806104d55760405162461bcd60e51b81526020600482015260146024820152734e6f2066756e647320746f20776974686472617760601b6044820152606401610362565b600b8201805460ff19169055604051600090339083908381818185875af1925050503d8060008114610523576040519150601f19603f3d011682016040523d82523d6000602084013e610528565b606091505b505090508061056b5760405162461bcd60e51b815260206004820152600f60248201526e151c985b9cd9995c8819985a5b1959608a1b6044820152606401610362565b604051828152339087907ff440aec6b52895984d061d622e6edeba6210f7c3e059be920663140c084560d79060200160405180910390a3505050505050565b6060816000811180156105bf57506000548111155b6105db5760405162461bcd60e51b815260040161036290611f64565b600083815260026020908152604080832080548251818502810185019093528083529193909284015b82821015610659576000848152602090819020604080516060810182526003860290920180546001600160a01b0316835260018082015484860152600290910154918301919091529083529092019101610604565b5050505091505b50919050565b60606000805467ffffffffffffffff81111561068457610684611ce3565b6040519080825280602002602001820160405280156106bd57816020015b6106aa6119d0565b8152602001906001900390816106a25790505b50905060015b60005481116106605760008181526001602081815260409283902083516101a08101909452805484529182018054918401916106fe90611f9b565b80601f016020809104026020016040519081016040528092919081815260200182805461072a90611f9b565b80156107775780601f1061074c57610100808354040283529160200191610777565b820191906000526020600020905b81548152906001019060200180831161075a57829003601f168201915b5050505050815260200160028201805461079090611f9b565b80601f01602080910402602001604051908101604052809291908181526020018280546107bc90611f9b565b80156108095780601f106107de57610100808354040283529160200191610809565b820191906000526020600020905b8154815290600101906020018083116107ec57829003601f168201915b5050505050815260200160038201805461082290611f9b565b80601f016020809104026020016040519081016040528092919081815260200182805461084e90611f9b565b801561089b5780601f106108705761010080835404028352916020019161089b565b820191906000526020600020905b81548152906001019060200180831161087e57829003601f168201915b505050505081526020016004820180546108b490611f9b565b80601f01602080910402602001604051908101604052809291908181526020018280546108e090611f9b565b801561092d5780601f106109025761010080835404028352916020019161092d565b820191906000526020600020905b81548152906001019060200180831161091057829003601f168201915b5050505050815260200160058201805461094690611f9b565b80601f016020809104026020016040519081016040528092919081815260200182805461097290611f9b565b80156109bf5780601f10610994576101008083540402835291602001916109bf565b820191906000526020600020905b8154815290600101906020018083116109a257829003601f168201915b505050505081526020016006820180546109d890611f9b565b80601f0160208091040260200160405190810160405280929190818152602001828054610a0490611f9b565b8015610a515780601f10610a2657610100808354040283529160200191610a51565b820191906000526020600020905b815481529060010190602001808311610a3457829003601f168201915b505050918352505060078201546001600160a01b031660208201526008820154604082015260098201546060820152600a8201546080820152600b9091015460ff808216151560a084015261010090910416151560c09091015282610ab7600184611fe5565b81518110610ac757610ac7611ffe565b60200260200101819052508080610add90612014565b9150506106c3565b610aed6119d0565b81600081118015610b0057506000548111155b610b1c5760405162461bcd60e51b815260040161036290611f64565b60008381526001602081815260409283902083516101a0810190945280548452918201805491840191610b4e90611f9b565b80601f0160208091040260200160405190810160405280929190818152602001828054610b7a90611f9b565b8015610bc75780601f10610b9c57610100808354040283529160200191610bc7565b820191906000526020600020905b815481529060010190602001808311610baa57829003601f168201915b50505050508152602001600282018054610be090611f9b565b80601f0160208091040260200160405190810160405280929190818152602001828054610c0c90611f9b565b8015610c595780601f10610c2e57610100808354040283529160200191610c59565b820191906000526020600020905b815481529060010190602001808311610c3c57829003601f168201915b50505050508152602001600382018054610c7290611f9b565b80601f0160208091040260200160405190810160405280929190818152602001828054610c9e90611f9b565b8015610ceb5780601f10610cc057610100808354040283529160200191610ceb565b820191906000526020600020905b815481529060010190602001808311610cce57829003601f168201915b50505050508152602001600482018054610d0490611f9b565b80601f0160208091040260200160405190810160405280929190818152602001828054610d3090611f9b565b8015610d7d5780601f10610d5257610100808354040283529160200191610d7d565b820191906000526020600020905b815481529060010190602001808311610d6057829003601f168201915b50505050508152602001600582018054610d9690611f9b565b80601f0160208091040260200160405190810160405280929190818152602001828054610dc290611f9b565b8015610e0f5780601f10610de457610100808354040283529160200191610e0f565b820191906000526020600020905b815481529060010190602001808311610df257829003601f168201915b50505050508152602001600682018054610e2890611f9b565b80601f0160208091040260200160405190810160405280929190818152602001828054610e5490611f9b565b8015610ea15780601f10610e7657610100808354040283529160200191610ea1565b820191906000526020600020905b815481529060010190602001808311610e8457829003601f168201915b505050918352505060078201546001600160a01b031660208201526008820154604082015260098201546060820152600a8201546080820152600b9091015460ff808216151560a084015261010090910416151560c0909101529392505050565b80600081118015610f1557506000548111155b610f315760405162461bcd60e51b815260040161036290611f64565b6000828152600160205260409020600b81015460ff16610f935760405162461bcd60e51b815260206004820152601a60248201527f43616d706169676e20616c72656164792066696e616c697a65640000000000006044820152606401610362565b80600a0154421015610fe05760405162461bcd60e51b815260206004820152601660248201527510d85b5c185a59db881b9bdd081e595d08195b99195960521b6044820152606401610362565b60088101546009820154600b8301805461010093831015840261ff0019909116179081905560405186937f8e6bc983f0bec5b2af5f687aaa6c8c81c348f16eb943fa6aafc423f94dcf67ae93611046939190910460ff1615158252602082015260400190565b60405180910390a2505050565b60008089511161109d5760405162461bcd60e51b81526020600482015260156024820152745469746c652063616e6e6f7420626520656d70747960581b6044820152606401610362565b600085116110f95760405162461bcd60e51b815260206004820152602360248201527f546172676574207072696365206d75737420626520677265617465722074686160448201526206e20360ec1b6064820152608401610362565b4284116111485760405162461bcd60e51b815260206004820152601e60248201527f446561646c696e65206d75737420626520696e207468652066757475726500006044820152606401610362565b60008054908061115783612014565b9190505550604051806101a0016040528060005481526020018a8152602001898152602001888152602001878152602001848152602001838152602001336001600160a01b03168152602001868152602001600081526020018581526020016001151581526020016000151581525060016000805481526020019081526020016000206000820151816000015560208201518160010190816111f9919061207b565b506040820151600282019061120e908261207b565b5060608201516003820190611223908261207b565b5060808201516004820190611238908261207b565b5060a0820151600582019061124d908261207b565b5060c08201516006820190611262908261207b565b5060e08201516007820180546001600160a01b0319166001600160a01b039092169190911790556101008083015160088301556101208301516009830155610140830151600a830155610160830151600b90920180546101809094015161ffff1990941692151561ff00191692909217921515029190911790556000546040513391907ffb3a3a7957d97be5751d1da859520cd418c067fe76b4e51899cee695d48af22990611316908d908a908a9061213b565b60405180910390a35060005498975050505050505050565b60008260008111801561134357506000548111155b61135f5760405162461bcd60e51b815260040161036290611f64565b505060009182526003602090815260408084206001600160a01b03939093168452919052902054151590565b8060008111801561139e57506000548111155b6113ba5760405162461bcd60e51b815260040161036290611f64565b6000828152600160205260409020600b81015460ff166114155760405162461bcd60e51b815260206004820152601660248201527543616d706169676e206973206e6f742061637469766560501b6044820152606401610362565b80600a0154421061145d5760405162461bcd60e51b815260206004820152601260248201527110d85b5c185a59db881a185cc8195b99195960721b6044820152606401610362565b600034116114b95760405162461bcd60e51b815260206004820152602360248201527f436f6e747269627574696f6e206d75737420626520677265617465722074686160448201526206e20360ec1b6064820152608401610362565b348160090160008282546114cd9190612160565b90915550506000838152600360209081526040808320338452909152812080543492906114fb908490612160565b909155505060008381526002602081815260408084208151606081018352338082523482860181815242848701818152865460018082018955978c529a89902095516003909b0290950180546001600160a01b0319166001600160a01b03909b169a909a178a5590519489019490945591519690950195909555815194855291840191909152909185917ff9b7589b7a8d939b9da5dae90770378fe5fd7802be5d66432e85bedbdbfbcb7a910160405180910390a380600801548160090154106115d157600b8101805461ff0019166101001790555b505050565b6000826000811180156115eb57506000548111155b6116075760405162461bcd60e51b815260040161036290611f64565b505060009182526003602090815260408084206001600160a01b0393909316845291905290205490565b60016020819052600091825260409091208054918101805461165290611f9b565b80601f016020809104026020016040519081016040528092919081815260200182805461167e90611f9b565b80156116cb5780601f106116a0576101008083540402835291602001916116cb565b820191906000526020600020905b8154815290600101906020018083116116ae57829003601f168201915b5050505050908060020180546116e090611f9b565b80601f016020809104026020016040519081016040528092919081815260200182805461170c90611f9b565b80156117595780601f1061172e57610100808354040283529160200191611759565b820191906000526020600020905b81548152906001019060200180831161173c57829003601f168201915b50505050509080600301805461176e90611f9b565b80601f016020809104026020016040519081016040528092919081815260200182805461179a90611f9b565b80156117e75780601f106117bc576101008083540402835291602001916117e7565b820191906000526020600020905b8154815290600101906020018083116117ca57829003601f168201915b5050505050908060040180546117fc90611f9b565b80601f016020809104026020016040519081016040528092919081815260200182805461182890611f9b565b80156118755780601f1061184a57610100808354040283529160200191611875565b820191906000526020600020905b81548152906001019060200180831161185857829003601f168201915b50505050509080600501805461188a90611f9b565b80601f01602080910402602001604051908101604052809291908181526020018280546118b690611f9b565b80156119035780601f106118d857610100808354040283529160200191611903565b820191906000526020600020905b8154815290600101906020018083116118e657829003601f168201915b50505050509080600601805461191890611f9b565b80601f016020809104026020016040519081016040528092919081815260200182805461194490611f9b565b80156119915780601f1061196657610100808354040283529160200191611991565b820191906000526020600020905b81548152906001019060200180831161197457829003601f168201915b505050600784015460088501546009860154600a870154600b9097015495966001600160a01b0390931695919450925060ff808216916101009004168d565b604051806101a001604052806000815260200160608152602001606081526020016060815260200160608152602001606081526020016060815260200160006001600160a01b031681526020016000815260200160008152602001600081526020016000151581526020016000151581525090565b60008060408385031215611a5857600080fd5b50508035926020909101359150565b600060208284031215611a7957600080fd5b5035919050565b602080825282518282018190526000919060409081850190868401855b82811015611ad557815180516001600160a01b0316855286810151878601528501518585015260609093019290850190600101611a9d565b5091979650505050505050565b6000815180845260005b81811015611b0857602081850181015186830182015201611aec565b506000602082860101526020601f19601f83011685010191505092915050565b60006101a0825184526020830151816020860152611b4882860182611ae2565b91505060408301518482036040860152611b628282611ae2565b91505060608301518482036060860152611b7c8282611ae2565b91505060808301518482036080860152611b968282611ae2565b91505060a083015184820360a0860152611bb08282611ae2565b91505060c083015184820360c0860152611bca8282611ae2565b91505060e0830151611be760e08601826001600160a01b03169052565b506101008381015190850152610120808401519085015261014080840151908501526101608084015115159085015261018092830151151592909301919091525090565b6000602080830181845280855180835260408601915060408160051b870101925083870160005b82811015611c8057603f19888603018452611c6e858351611b28565b94509285019290850190600101611c52565b5092979650505050505050565b60008060408385031215611ca057600080fd5b8235915060208301356001600160a01b0381168114611cbe57600080fd5b809150509250929050565b602081526000611cdc6020830184611b28565b9392505050565b634e487b7160e01b600052604160045260246000fd5b600082601f830112611d0a57600080fd5b813567ffffffffffffffff80821115611d2557611d25611ce3565b604051601f8301601f19908116603f01168101908282118183101715611d4d57611d4d611ce3565b81604052838152866020858801011115611d6657600080fd5b836020870160208301376000602085830101528094505050505092915050565b600080600080600080600080610100898b031215611da357600080fd5b883567ffffffffffffffff80821115611dbb57600080fd5b611dc78c838d01611cf9565b995060208b0135915080821115611ddd57600080fd5b611de98c838d01611cf9565b985060408b0135915080821115611dff57600080fd5b611e0b8c838d01611cf9565b975060608b0135915080821115611e2157600080fd5b611e2d8c838d01611cf9565b965060808b0135955060a08b0135945060c08b0135915080821115611e5157600080fd5b611e5d8c838d01611cf9565b935060e08b0135915080821115611e7357600080fd5b50611e808b828c01611cf9565b9150509295985092959890939650565b8d81526101a060208201526000611eab6101a083018f611ae2565b8281036040840152611ebd818f611ae2565b90508281036060840152611ed1818e611ae2565b90508281036080840152611ee5818d611ae2565b905082810360a0840152611ef9818c611ae2565b905082810360c0840152611f0d818b611ae2565b915050611f2560e08301896001600160a01b03169052565b866101008301528561012083015284610140830152611f4961016083018515159052565b8215156101808301529e9d5050505050505050505050505050565b60208082526017908201527f50726f706572747920646f6573206e6f74206578697374000000000000000000604082015260600190565b600181811c90821680611faf57607f821691505b60208210810361066057634e487b7160e01b600052602260045260246000fd5b634e487b7160e01b600052601160045260246000fd5b81810381811115611ff857611ff8611fcf565b92915050565b634e487b7160e01b600052603260045260246000fd5b60006001820161202657612026611fcf565b5060010190565b601f8211156115d157600081815260208120601f850160051c810160208610156120545750805b601f850160051c820191505b8181101561207357828155600101612060565b505050505050565b815167ffffffffffffffff81111561209557612095611ce3565b6120a9816120a38454611f9b565b8461202d565b602080601f8311600181146120de57600084156120c65750858301515b600019600386901b1c1916600185901b178555612073565b600085815260208120601f198616915b8281101561210d578886015182559484019460019091019084016120ee565b508582101561212b5787850151600019600388901b60f8161c191681555b5050505050600190811b01905550565b60608152600061214e6060830186611ae2565b60208301949094525060400152919050565b80820180821115611ff857611ff8611fcf56fea26469706673582212204bb113a0d1f1958dc2710469f2344ffacbcc843f23ea3c2326247a4d02067bb064736f6c63430008140033",
  "linkReferences": {},
  "deployedLinkReferences": {}
}